S02B00005333324B3134345F466C657843414E5F52584649464F5F53444B5F52544D3330305F41564D2E7372CF
S214000000007000201104000079040000790400004C
S2140000107904000079040000790400000000000064
S214000020000000000000000000000000790400004E
S214000030790400000000000079040000B9FD00000B
S214000040617900006F7900007D7900008B790000EF
S21400005099790000A7790000B5790000C3790000FF
S214000060D1790000DF790000ED790000FB7900000F
S214000070097A0000177A0000257A0000337A00001B
S214000080417A000079040000790400007904000039
S2140000907904000079040000790400007904000067
S2140000A07904000079040000790400007904000057
S2140000B07904000079040000790400007904000047
S2140000C07904000079040000790400007904000037
S2140000D07904000079040000790400007904000027
S2140000E07904000079040000790400007904000017
S2140000F07904000079040000790400007904000007
S21400010079040000790400007904000079040000F6
S21400011079040000790400007904000079040000E6
S21400012079040000790400007904000079040000D6
S21400013079040000790400007904000079040000C6
S21400014079040000790400007904000079040000B6
S21400015079040000F5AA0000790400007904000084
S2140001607904000079040000790400007904000096
S2140001707904000079040000A9A40000B7A40000D8
S214000180C5A40000D3A40000E1A400007904000088
S21400019079040000EFA40000FDA40000790400002C
S2140001A00BA5000079040000790400007904000023
S2140001B019A5000027A500007904000035A5000059
S2140001C07904000079040000790400007904000036
S2140001D07904000079040000790400007904000026
S2140001E07904000079040000790400007904000016
S2140001F07904000079040000790400007904000006
S2140003F0790400007904000079040000FFFFFFFF85
S214000400FFFFFFFFFFFFFFFFFFFFFFFFFE7FFFFF78
S21400041072B64FF000014FF000024FF000034FF0AD
S21400042000044FF000054FF000064FF00007B846F6
S214000430B946BA46BB46BC460A490B4A521A013A66
S21400044005DD0020042308601944043AFBDA074857
S2140004508546074880470748804762B625F0F8FA81
S214000460FEE700000080FF1F0070002000700020E4
S214000470AD3100001D320000FFF7FEBF81F00041E5
S21400048002E000BF83F0004330B54FEA41044FEA74
S214000490430594EA050F08BF90EA020F1FBF54EA0F
S2140004A0000C55EA020C7FEA645C7FEA655C00F0AB
S2140004B0E2804FEA5454D4EB5555B8BF6D420CDD7C
S2140004C02C4480EA020281EA030382EA000083EAFF
S2140004D0010180EA020281EA0303362D88BF30BD9F
S2140004E011F0004F4FEA01314FF4801C4CEA1131F5
S2140004F002D0404261EB410113F0004F4FEA033354
S2140005004CEA133302D0524263EB430394EA050FDE
S21400051000F0A780A4F10104D5F1200E0DDB02FA4D
S2140005200EFC22FA05F2801841F1000103FA0EF2E1
S214000530801843FA05F359410EE0A5F120050EF1A7
S214000540200E012A03FA0EFC28BF4CF0020C43FAD8
S21400055005F3C01851EBE37101F0004507D54FF0E5
S214000560000EDCF1000C7EEB00006EEB0101B1F535
S214000570801F1BD3B1F5001F0CD349085FEA30007B
S2140005804FEA3C0C04F101044FEA445212F5800F86
S21400059080F09A80BCF1004F08BF5FEA500C50F123
S2140005A0000041EB045141EA050130BD5FEA4C0C06
S2140005B0404141EB010111F4801FA4F10104E9D18F
S2140005C091F0000F04BF01460020B1FA81F308BF86
S2140005D02033A3F10B03B3F120020CDA0C3208DD52
S2140005E002F1140CC2F10C0201FA0CF021FA02F12D
S2140005F00CE002F11402D8BFC2F1200C01FA02F19D
S21400060020FA0CFCDCBF41EA0C019040E41AA2BFC1
S21400061001EB0451294330BD6FEA04041F3C1CDA89
S2140006200C340EDC04F11404C4F1200220FA04F0A9
S21400063001FA02F340EA030021FA04F345EA030153
S21400064030BDC4F10C04C4F1200220FA02F001FA15
S21400065004F340EA0300294630BD21FA04F0294697
S21400066030BD94F0000F83F4801306BF81F4801130
S2140006700134013D4EE77FEA645C18BF7FEA655CA3
S21400068029D094EA050F08BF90EA020F05D054EA75
S214000690000C04BF1946104630BD91EA030F1EBF7A
S2140006A00021002030BD5FEA545C05D1400049417E
S2140006B028BF41F0004130BD14F580043CBF01F571
S2140006C0801130BD01F0004545F0FE4141F4700157
S2140006D04FF0000030BD7FEA645C1ABF1946104632
S2140006E07FEA655C1CBF0B46024650EA013406BF33
S2140006F052EA033591EA030F41F4002130BD00BFF2
S21400070090F0000F04BF0021704730B54FF48064AE
S21400071004F132044FF000054FF0000150E700BF2F
S21400072090F0000F04BF0021704730B54FF480648E
S21400073004F1320410F0004548BF40424FF000017B
S2140007403EE700BF42004FEAE2014FEA31014FEABE
S21400075002701FBF12F07F4393F07F4F81F060510D
S214000760704732F07F4208BF704793F07F4F04BF58
S21400077041F40021704730B54FF4607401F0004535
S21400078021F000411CE700BF50EA010208BF704795
S21400079030B54FF000050AE050EA010208BF704786
S2140007A030B511F0004502D5404261EB41014FF4EF
S2140007B0806404F132045FEA915C3FF4D8AE4FF0F7
S2140007C003025FEADC0C18BF03325FEADC0C18BFDA
S2140007D0033202EBDC02C2F1200300FA03FC20FA2B
S2140007E002F001FA03FE40EA0E0021FA02F1144478
S2140007F0BDE600BF70B54FF0FF0C4CF4E06C1CEA91
S21400080011541DBF1CEA135594EA0C0F95EA0C0F01
S21400081000F0DEF82C4481EA030621EA4C5123EA74
S2140008204C5350EA013518BF52EA033541F48011A3
S21400083043F4801338D0A0FB02CE4FF00005E1FB56
S21400084002E506F00042E0FB03E54FF00006E1FBA0
S21400085003569CF0000F18BF4EF0010EA4F1FF04E3
S214000860B6F5007F64F5407404D25FEA4E0E6D4123
S21400087046EB060642EAC62141EA55514FEAC52034
S21400088040EA5E504FEACE2EB4F1FD0C88BFBCF5B0
S214000890E06F1ED8BEF1004F08BF5FEA500E50F161
S2140008A0000041EB045170BD06F0004646EA010127
S2140008B040EA020081EA0301B4EB5C04C2BFD4EB59
S2140008C00C0541EA045170BD41F480114FF0000E52
S2140008D0013C00F3AB8014F1360FDEBF002001F0C0
S2140008E0004170BDC4F10004203C35DA0C341BDC3A
S2140008F004F11404C4F1200500FA05F320FA04F00C
S21400090001FA05F240EA020001F0004221F000413F
S21400091010EBD37021FA04F642EB06015EEA430EB2
S21400092008BF20EAD37070BDC4F10C04C4F12005E2
S21400093000FA04F320FA05F001FA04F240EA020095
S21400094001F0004110EBD37041F100015EEA430E66
S21400095008BF20EAD37070BDC4F1200500FA05F286
S2140009604EEA020E20FA04F301FA05F243EA020305
S21400097021FA04F001F0004121FA04F220EA020014
S21400098000EBD3705EEA430E08BF20EAD37070BD5A
S21400099094F0000F0FD101F00046400041EB01013A
S2140009A011F4801F08BF013CF7D041EA060195F01C
S2140009B0000F18BF704703F00046520043EB0303D6
S2140009C013F4801F08BF013DF7D043EA06037047C3
S2140009D094EA0C0F0CEA135518BF95EA0C0F0CD0CE
S2140009E050EA410618BF52EA4306D1D181EA030114
S2140009F001F000414FF0000070BD50EA410606BF0E
S214000A001046194652EA430619D094EA0C0F02D152
S214000A1050EA013613D195EA0C0F05D152EA033697
S214000A201CBF104619460AD181EA030101F00041B5
S214000A3041F0FE4141F470014FF0000070BD41F0FE
S214000A40FE4141F4780170BD70B54FF0FF0C4CF4D8
S214000A50E06C1CEA11541DBF1CEA135594EA0C0FF7
S214000A6095EA0C0F00F0A7F8A4EB050481EA030E44
S214000A7052EA03354FEA013100F088804FEA03332B
S214000A804FF0805545EA131343EA12634FEA0222F9
S214000A9045EA111545EA10654FEA00260EF00041BA
S214000AA09D4208BF964244F1FD0404F5407402D20C
S214000AB05B084FEA3202B61A65EB03055B084FEA9D
S214000AC032024FF480104FF4002CB6EB020E75EB9A
S214000AD0030E22BFB61A754640EA0C005B084FEAC2
S214000AE03202B6EB020E75EB030E22BFB61A75463F
S214000AF040EA5C005B084FEA3202B6EB020E75EB8A
S214000B00030E22BFB61A754640EA9C005B084FEA01
S214000B103202B6EB020E75EB030E22BFB61A75460E
S214000B2040EADC0055EA060E18D04FEA051545EAFD
S214000B3016754FEA06164FEAC30343EA52734FEAA6
S214000B40C2025FEA1C1CC0D111F4801F0BD141EA1F
S214000B5000014FF000004FF0004CB6E711F4801F84
S214000B6004BF01430020B4F1FD0C88BFBCF5E06F64
S214000B703FF6AFAEB5EB030C04BFB6EB020C5FEA74
S214000B80500C50F1000041EB045170BD0EF0004EC9
S214000B904EEA113114EB5C04C2BFD4EB0C0541EAFB
S214000BA0045170BD41F480114FF0000E013C90E6F8
S214000BB045EA060E8DE60CEA135594EA0C0F08BFBC
S214000BC095EA0C0F3FF43BAF94EA0C0F0AD150EABB
S214000BD001347FF434AF95EA0C0F7FF425AF10464E
S214000BE019462CE795EA0C0F06D152EA03353FF476
S214000BF0FDAE1046194622E750EA410618BF52EAF3
S214000C0043067FF4C5AE50EA41047FF40DAF52EAC6
S214000C1043057FF4EBAE12E74FF0FF3C06E000BF63
S214000C204FF0010C02E000BF4FF0010C4DF804CD70
S214000C304FEA410C7FEA6C5C4FEA430C18BF7FEA30
S214000C406C5C1BD001B050EA410C0CBF52EA430C5E
S214000C5091EA030F02BF90EA020F0020704710F1DE
S214000C60000F91EA030F58BF994208BF90422CBF6D
S214000C70D8176FEAE37040F0010070474FEA410C66
S214000C807FEA6C5C02D150EA013C07D14FEA430C84
S214000C907FEA6C5CD6D152EA033CD3D05DF8040BF5
S214000CA0704700BF8446104662468C461946634627
S214000CB000E000BF01B5FFF7B7FF002848BF10F1FE
S214000CC0000F01BD4DF808EDFFF7F4FF0CBF012043
S214000CD000205DF808FB00BF4DF808EDFFF7EAFFBF
S214000CE034BF012000205DF808FB00BF4DF808ED7A
S214000CF0FFF7E0FF94BF012000205DF808FB00BF6F
S214000D004DF808EDFFF7CEFF94BF012000205DF8F8
S214000D1008FB00BF4DF808EDFFF7C4FF34BF012005
S214000D2000205DF808FB00BF4FEA410212F50012F2
S214000D3015D211D56FF47873B3EB625212D94FEA1D
S214000D40C12343F0004343EA505311F0004F23FA07
S214000D5002F018BF404270474FF00000704750EA5C
S214000D60013005D111F0004008BF6FF00040704719
S214000D704FF00000704700BF80F0004002E000BF68
S214000D8081F0004142001FBF5FEA410392EA030F71
S214000D907FEA226C7FEA236C6AD04FEA1262D2EBBB
S214000DA01363C1BFD218414048404140B8BF5B42C0
S214000DB0192B88BF704710F0004F40F4000020F059
S214000DC07F4018BF404211F0004F41F4000121F06F
S214000DD07F4118BF494292EA030F3FD0A2F10102B9
S214000DE041FA03FC10EB0C00C3F1200301FA03F1F7
S214000DF000F0004302D5494260EB4000B0F5000F1A
S214000E0013D3B0F1807F06D340084FEA310102F1D8
S214000E100102FE2A51D2B1F1004F40EBC25008BF8A
S214000E2020F0010040EA03007047490040EB000054
S214000E3010F4000FA2F10102EDD1B0FA80FCACF183
S214000E40080CB2EB0C0200FA0CF0AABF00EBC25082
S214000E5052421843BCBFD0401843704792F0000F70
S214000E6081F4000106BF80F400000132013BB5E7C3
S214000E704FEA41037FEA226C18BF7FEA236C21D039
S214000E8092EA030F04D092F0000F08BF084670479E
S214000E9090EA010F1CBF0020704712F07F4F04D16C
S214000EA0400028BF40F00040704712F100723CBF7F
S214000EB000F50000704700F0004343F0FE4040F4A9
S214000EC0000070477FEA226216BF08467FEA236367
S214000ED00146420206BF5FEA412390EA010F40F452
S214000EE0800070474FF0000304E000BF10F000439E
S214000EF048BF40425FEA000C08BF704743F0964385
S214000F0001464FF000001CE050EA010208BF70479F
S214000F104FF000030AE000BF50EA010208BF704726
S214000F2011F0004302D5404261EB41015FEA010C3B
S214000F3002BF84460146002043F0B64308BFA3F133
S214000F408053A3F50003BCFA8CF2083AA3EBC25315
S214000F5010DB01FA02FC634400FA02FCC2F1200234
S214000F60BCF1004F20FA02F243EB020008BF20F06B
S214000F700100704702F1200201FA02FCC2F12002D1
S214000F8050EA4C0021FA02F243EB020008BF20EAC6
S214000F90DC7070474FF0FF0C1CEAD0521EBF1CEAF4
S214000FA0D15392EA0C0F93EA0C0F6FD01A4480EAE2
S214000FB0010C400218BF5FEA41211ED04FF00063CB
S214000FC043EA501043EA5111A0FB01310CF00040F7
S214000FD0B1F5000F3EBF490041EAD3715B0040EA1D
S214000FE0010062F17F02FD2A1DD8B3F1004F40EBED
S214000FF0C25008BF20F00100704790F0000F0CF0C0
S214001000004C08BF49024CEA502040EA51207F3A83
S214001010C2BFD2F1FF0340EAC250704740F400005E
S2140010204FF00003013A5DDC12F1190FDCBF00F04F
S21400103000407047C2F10002410021FA02F1C2F1FD
S214001040200200FA02FC5FEA310040F1000053EA99
S2140010504C0308BF20EADC70704792F0000F00F0E7
S214001060004C02BF400010F4000F013AF9D040EAED
S2140010700C0093F0000F01F0004C02BF490011F481
S214001080000F013BF9D041EA0C018FE70CEAD1537F
S21400109092EA0C0F18BF93EA0C0F0AD030F0004CFF
S2140010A018BF31F0004CD8D180EA010000F00040B3
S2140010B0704790F0000F17BF90F0004F084691F071
S2140010C0000F91F0004F14D092EA0C0F01D14202AB
S2140010D00FD193EA0C0F03D14B0218BF084608D174
S2140010E080EA010000F0004040F0FE4040F40000BE
S2140010F0704740F0FE4040F4400070474FF0FF0C51
S2140011001CEAD0521EBF1CEAD15392EA0C0F93EA97
S2140011100C0F69D0A2EB030280EA010C49024FEAE9
S214001120402037D04FF0805343EA111143EA1013A2
S2140011300CF000408B4238BF5B0042F17D024FF45A
S214001140000C8B4224BF5B1A40EA0C00B3EB510F35
S21400115024BFA3EB510340EA5C00B3EB910F24BF1E
S214001160A3EB910340EA9C00B3EBD10F24BFA3EBA3
S214001170D10340EADC001B0118BF5FEA1C1CE0D16B
S214001180FD2A3FF650AF8B4240EBC25008BF20F01E
S214001190010070470CF0004C4CEA50207F32C2BF72
S2140011A0D2F1FF0340EAC250704740F400004FF00F
S2140011B00003013A37E792F0000F00F0004C02BF40
S2140011C0400010F4000F013AF9D040EA0C0093F00A
S2140011D0000F01F0004C02BF490011F4000F013B64
S2140011E0F9D041EA0C0195E70CEAD15392EA0C0FCC
S2140011F008D142027FF47DAF93EA0C0F7FF470AF04
S214001200084676E793EA0C0F04D14B023FF44CAF46
S21400121008466EE730F0004C18BF31F0004CCAD1DB
S21400122030F000427FF45CAF31F000437FF43CAF17
S2140012305FE700BF4FEA4002B2F1FE4F0FD34FF018
S2140012409E03B3EB12620DD94FEA002343F000432E
S21400125010F0004F23FA02F018BF404270474FF0DC
S2140012600000704712F1610F01D1420205D110F063
S214001270004008BF6FF0004070474FF00000704716
S21400128042000ED2B2F1FE4F0BD34FF09E03B3EBEB
S214001290126209D44FEA002343F0004323FA02F017
S2140012A070474FF00000704712F1610F01D1420203
S2140012B002D14FF0FF3070474FF00000704700BF7C
S2140012C053B94AB9002908BF00281CBF4FF0FF31A8
S2140012D04FF0FF3000F07EB9ADF1080C6DE904CE9A
S2140012E000F006F8DDF804E0DDE9022304B07047FC
S2140012F02DE9F047089D04468E46002B4ED18A42C3
S21400130094466DD9B2FA82F757B1C7F1200EB940AC
S21400131020FA0EFE02FA07FC4EEA010E00FA07F467
S2140013204FEA1C49210CBEFBF9F61FFA8CF809FBA4
S21400133016EE41EA0E4106FB08F38B420AD91CEB77
S214001340010106F1FF3280F027818B4240F22481B2
S214001350023E6144C91AA4B2B1FBF9F009FB1011B0
S21400136044EA014400FB08F8A0450AD91CEB040433
S21400137000F1FF3380F00E81A04540F20B81023869
S214001380644440EA0640A4EB080400267DB1FC4015
S21400139000232C606B603146BDE8F0878B4209D98C
S2140013A0002D00F01481002685E803003046314603
S2140013B0BDE8F087B3FA83F6002E40F090808B42AB
S2140013C002D3824200F2FD80841A61EB0301012001
S2140013D08E46002DEBD085E810403146BDE8F087FC
S2140013E01AB94FF0010CBCFBF2FCBCFA8CF7A7BB99
S2140013F0A1EB0C034FEA1C421FFA8CF80126B3FB44
S214001400F2FE210C02FB1E3341EA034108FB0EF3F9
S2140014108B4208D91CEB01010EF1FF3002D28B4241
S21400142000F2D1808646C91AA3B2B1FBF2F002FBE5
S214001430101143EA014408FB00F8A04508D91CEB4C
S214001440040400F1FF3302D2A04500F2B78018462C
S214001450A4EB080440EA0E4098E7C7F1200301FA1F
S21400146007F40CFA07FC20FA03FED9404FEA1C42A8
S2140014704EEA040EB1FBF2F64FEA1E4302FB1611CB
S2140014801FFA8CF843EA014306FB08F1994200FA7A
S21400149007F40AD91CEB030306F1FF3080F08C80BA
S2140014A0994240F28980023E63445B1A1FFA8EF12D
S2140014B0B3FBF2F002FB103341EA034100FB08F3F2
S2140014C08B4208D91CEB010100F1FF3E70D28B4223
S2140014D06ED902386144CB1A40EA06468FE7C6F159
S2140014E0200722FA07F8B34001FA06F448EA030395
S2140014F020FA07FC4FEA134EF9404CEA040CB1FB05
S214001500FEF94FEA1C440EFB19111FFA83F844EA51
S214001510014109FB08F48C4202FA06F200FA06FAC8
S21400152008D9591809F1FF3044D28C4242D9A9F1A2
S21400153002091944091B1FFA8CFCB1FBFEF00EFBD6
S21400154010114CEA014400FB08F8A04507D91C1905
S21400155000F1FF312AD2A04528D902381C4440EABF
S2140015600940A4EB0804A0FB02894C45C446494642
S21400157016D313D055B1BAEB0C0364EB010404FA8E
S21400158007F7F3401F43F4402F606C600026314697
S214001590BDE8F0871846F4E61646DBE6C245E9D213
S2140015A0B8EB020C69EB03010138E3E70846D6E71F
S2140015B0704690E78146BDE7064676E70238644403
S2140015C046E7304605E7AEF1020E61442BE72E46AD
S2140015D02846ECE6704700BF80B400AF00231846EC
S2140015E0BD4680BC7047000080B487B000AF03469D
S2140015F0FB710B46BB7113467B71FA791346DB0011
S21400160013449B001D4A13443B613B69DB78002B67
S2140016102FD03B699A69BB79DB0013441B787A7933
S2140016209A4226D87B79FB75FA7914491346DB0073
S21400163013449B000B441D331B781A461346DB00ED
S2140016409B1A9B000E4A1344FB60FB681A78FB68E3
S2140016505A70FB68BA791A70FB7D002B01D1012302
S214001660FB75FB685A68BB791344FA7D013AD2B21F
S2140016701A7000BF1C37BD4680BC704754910200EC
S2140016802415002080B487B000AF0346FB71FA79BA
S21400169032491346DB0013449B000B441D331B7872
S2140016A01A461346DB009B1A9B002D4A13443B61E7
S2140016B03B695B8A4FF6FF72934224D03B691B7DE1
S2140016C0FB733B695B8ABB81FB7B082B17D8FA7BD5
S2140016D0BB8913444E2B12D80023FB750BE0BA8946
S2140016E0FB7D1344FA7D39690A44517A1D4AD15468
S2140016F0FB7D0133FB75FA7DFB7B9A42EFD33B699A
S2140017004FF6FF725A823B69DB8AFF2B20D03B697B
S2140017101B7EFB733B69DB8ABB81FB7B2D2B17D8BB
S214001720FA7BBB8913442D2B12D80023FB7508E0E7
S214001730BA89FB7D13440C4AFF21D154FB7D01334B
S214001740FB75FA7DFB7B9A42F2D33B69FF22DA8275
S21400175000BF1C37BD4680BC704700BF54910200D6
S214001760241500202C85FF1F7C85FF1F80B48DB0BC
S21400177000AF0346FB710B46BB7113467B71FA79CB
S21400178057491346DB0013449B000B441D331B785C
S2140017901A461346DB009B1A9B00524A1344BB6250
S2140017A0BB793C2B45D1BB6A1B7887F82730FA7982
S2140017B04B491346DB0013449B000B4418331A684E
S2140017C097F82730DB0013443B623B6A5B78022BBA
S2140017D000F08180BB6A5A6897F827301344FB6193
S2140017E0FB795B01404A1344BB613B6A5A68FB695C
S2140017F01B7819460B469B000B445B0013447B6129
S214001800002387F82F300FE0BB695A6897F82F300F
S214001810134497F82F2079690A4492781A7097F83B
S2140018202F30013387F82F3097F82F30072BEBD95E
S21400183051E0FA791346DB0013449B00284A134410
S2140018403B613B699A687B791B0113449B78002BAC
S21400185041D13B699A687B791B0113445B78FB7323
S2140018603B699A687B791B0113449B88BB857B790F
S2140018701E4AD35CBB73002387F82F3026E0BA7B62
S21400188097F82F3022FA03F303F00103002B0BD056
S21400189097F82F3097F82F2015498A5CD1B2BA6A8C
S2140018A013440A465A7209E097F82F30BA8D114948
S2140018B08A5CD1B2BA6A13440A465A72BB8D0133A7
S2140018C0BB8597F82F30013387F82F3097F82F20F5
S2140018D0FB7B9A42D3D300BF3437BD4680BC7047EB
S2140018E05491020024150020C41400202800002073
S2140018F0080000202C85FF1F80B58AB000AF034685
S214001900FB7100233B77FB794C2202FB03F3854AED
S2140019101344BB61FA791346DB0013449B00824AEA
S21400192013447B61FB795B01804A13443B617B690E
S214001930DB78002B00F0F180FA797B491346DB0058
S21400194013449B000B441D331B781A461346DB00DA
S2140019509B1A9B00764A1344FB60FB791846FFF7F8
S21400196091FEFB681B787B773B691B7BBB77BB696B
S21400197093F83730012B12D13B699B7D012B0ED19A
S214001980BB7F3D2B0BD1FB685B787B77FB687A7F50
S2140019901A70FB685A687B7F134400221A707B69B2
S2140019A09A697B7FDB0013447B62FB685A687B7F07
S2140019B013443B627B6A5B78002B00F097803B69A0
S2140019C01B7D002B40F084807B691B78012B1AD08E
S2140019D0FB681B7A002B16D0BA7FFB791146184697
S2140019E000F092FEFB681B787B777B699A697B7FA9
S2140019F0DB0013447B62FB685A687B7F13443B62C0
S214001A00FB6800221A727B6A5A683B6A1B78194682
S214001A100B469B000B445B0013445A783B691A75CF
S214001A207B6A5A683B6A1B7819460B469B000B4438
S214001A305B0013441B78FB77FB7F7A6952799B1A0D
S214001A407A691279934209DA7B691A69FB7F7969A8
S214001A5049795B1A013313441B78BB777B699A6814
S214001A60FB7F1B0113441B78102B0FD1FA7FFB79E9
S214001A701146184600F022FC0346BB77BA7FFB7976
S214001A801146184600F0F2FC0346FB77BB7FFF2B9F
S214001A900ED0FB7F172B0BD8FA7FB97FFB79184641
S214001AA0FFF764FEBA7FFB791146184601F096F8F8
S214001AB03B6A1B780133DAB23B6A1A703B6A1A78C3
S214001AC07B6A1B789A4203D3FB79184600F08EFB9C
S214001AD03B691B7D013BDAB23B691A753B691B7D8E
S214001AE0002B03D13B6A1B7801333B777B691B785D
S214001AF0012B0AD0032B02D0002B00D00AE0FB7982
S214001B000021184600F050FE04E0FB79184600F06D
S214001B10A3FD00BF3B69BA7F1A733B7F1846283780
S214001B20BD4680BDE013002054910200C41400207E
S214001B302415002080B586B000AF0346FB71FB7904
S214001B405B01294A13447B61FA791346DB00134490
S214001B509B00264A13443B617B6900229A75FB79F9
S214001B60184600F087FF0346FB73FB7B83F00103F8
S214001B70DBB2002B32D03B69DB78002B2ED03B69E2
S214001B805B7F1A461346DB009B1A9B00184A1344D9
S214001B90BB60BB68FF22DA82BB684FF6FF725A82D0
S214001BA0BB6800221A76BB6800221A75BB68114A09
S214001BB05A60BB6801225A76BB6800229A76BB68D8
S214001BC01A78BB685A703B69DA7DBB681A70BB68C6
S214001BD05B683A69D27D134400221A70FB7B184674
S214001BE01837BD4680BD00BFC414002054910200C3
S214001BF0241500204800002080B483B000AF0346C0
S214001C00FB710B46BB7113467B71002318460C37DD
S214001C10BD4680BC7047000080B582B000AF03466A
S214001C20FB710B46BB7113467B71BB79082B36D80C
S214001C3001A252F823F000BF5D1C00006B1C0000E0
S214001C40791C0000911C0000911C0000911C0000F3
S214001C50911C0000911C0000871C00007A79FB791B
S214001C601146184600F020F81AE07A79FB791146FA
S214001C70184600F097F913E07A79FB791146184672
S214001C8000F0BAF80CE0FB79184600F0A1FA07E07D
S214001C907A79B979FB79184600F020FA00E000BF9F
S214001CA000BF0837BD4680BD80B588B000AF03468C
S214001CB00A46FB711346BB710023FB77FA7913467D
S214001CC0DB0013449B004A4A1344BB61FB795B016B
S214001CD0484A13447B61BA79FB791146184600F0EE
S214001CE0C5FB0346FB74BB699A68FB7C1B01134467
S214001CF0FB60FB7CFF2B5CD00123FB77BB790021CC
S214001D00184600F0A3FE03461A467B695A73FB6822
S214001D101B78012B11D0112B16D0002B00D048E0D9
S214001D20FB689B78002B3FD1B979FB7900221846D7
S214001D3000F0D0FB0223FB7736E0BB69DB78002B94
S214001D4034D00123FB7731E0BB691B78022B28D007
S214001D50FB689B78002B1BD10223FB77BB793C2BBF
S214001D600AD17B699B7D012B22D1BA79FB790021B0
S214001D701846FFF741FF1BE0BA79FB7901211846A8
S214001D80FFF73AFF0346012B12D10023FB770FE043
S214001D90BA79FB7907211846FFF72EFF0123FB7758
S214001DA006E00023FB7703E000BF02E000BF00E090
S214001DB000BFFB7F012B02D0022B08D00FE0FB6890
S214001DC05A78FB791146184600F0C8FF0CE0FB680D
S214001DD05A78FB791146184600F078FF04E0FB7944
S214001DE0184600F037FF00BF00BF2037BD4680BD55
S214001DF054910200C414002080B588B000AF03469A
S214001E000A46FB711346BB71FA791346DB0013448E
S214001E109B005F4A1344BB61FB795B015D4A134438
S214001E207B617B6901225A727B699B7BFF2B05D005
S214001E307B699B7B0133DAB27B699A737B699B7BF8
S214001E40012B06D97B69DB7B002B02D17B69012243
S214001E50DA73BA79FB791146184600F007FB034699
S214001E60FB77FB7F172B00F28F80BB699A68FB7F9E
S214001E701B0113441B78012B0BD0112B21D0002BF8
S214001E8000D032E0B979FB790122184600F022FB37
S214001E902BE0BA79FB791146184600F041FD7B69C4
S214001EA05B681B780121184600F0D0FD0346FB74E2
S214001EB0FA7CFB791146184600F0D8FA0346FB7701
S214001EC013E07B695B681B78002B07D17B690122D6
S214001ED0DA72FB79184600F0DBFE05E0BA79FB798A
S214001EE003211846FFF788FE00BFFB7F172B4BD851
S214001EF0FB7F294A0121D154BB69DB7883F00103BB
S214001F00DBB2002B1FD0BB699A68FB7F1B01134412
S214001F10DB88BB83BB699A68FB7F1B0113441B7A73
S214001F20BB740023BB7709E0BB8B1C4AFF21D1544E
S214001F30BB8B0133BB83BB7F0133BB77BA7FBB7CD4
S214001F409A42F1D320E0FA7911491346DB00134494
S214001F509B000B441D331B781A461346DB009B1A66
S214001F609B000F4A1344FB60BB699A68FB7F1B010A
S214001F701344DA88FB68DA82BB699A68FB7F1B0128
S214001F8013441A7AFB681A7600BF2037BD4680BD18
S214001F9054910200C4140020100000207C85FF1F0E
S214001FA02415002080B586B000AF03460A46FB71B4
S214001FB01346BB71FA791346DB0013449B00434A71
S214001FC013447B61FB795B01414A13443B613B69E7
S214001FD001225A723B699B7BFF2B05D03B699B7B9A
S214001FE00133DAB23B699A733B699B7B012B06D9B6
S214001FF03B69DB7B002B02D13B690122DA733B692C
S2140020001B7F002B05D03B6900229A723B69002299
S2140020101A777B69DB78002B23D0BB793C2B20D149
S214002020FA792A491346DB0013449B000B441D3300
S2140020301B781A461346DB009B1A9B00254A13445E
S214002040FB607B699A69FB681B78DB0013445B784E
S214002050002B06D13B690122DA72FB79184600F0A4
S21400206017FEBA79FB791146184600F0FFF90346C9
S214002070FB727B69DB78002B06D0BB793C2B03D147
S2140020803B699B7D012B09D07B69DB7883F00103DC
S214002090DBB2002B08D0BB793D2B05D1BA79FB7992
S2140020A002211846FFF7A8FDFB7A172B09D8FA7A03
S2140020B0FB791146184600F073F9FB7A064A0121AF
S2140020C0D15400BF1837BD4680BD00BF54910200F2
S2140020D0C4140020241500201000002080B586B00F
S2140020E000AF0346FB710B46BB7113467B71FA7952
S2140020F01346DB0013449B00324A13447B61FB7992
S2140021005B01314A13443B617A79FB7911461846E4
S21400211000F0ACF90346FB733B699B7BFF2B05D0B5
S2140021203B699B7B0133DAB23B699A733B699B7BC5
S214002130012B06D93B69DB7B002B02D13B690122D0
S214002140DA73BB79032B34D0032B34DB072B32DC5A
S2140021507B699A68FB7B1B0113441B78012B18D103
S2140021607B69DB78002B28D0FA7916491346DB000A
S21400217013449B000B441D331B781A461346DB00A2
S2140021809B1A9B00114A1344BB60BB6801221A725B
S21400219013E03B6901229A727B793C2B02D07B7953
S2140021A03D2B0AD17A79FB7904211846FFF724FDE6
S2140021B003E000BF02E000BF00E000BF00BF18372A
S2140021C0BD4680BD54910200C41400202415002092
S2140021D080B582B000AF0346FB71FB79184600F06D
S2140021E057FD00BF0837BD4680BD000080B586B0ED
S2140021F000AF0346FB71FA791346DB0013449B00DD
S2140022002C4A13447B61FA792A491346DB001344AF
S2140022109B000B441D331B781A461346DB009B1AA3
S2140022209B00254A13443B613B69FB603B690133D5
S214002230BB607B699A693B691B78DB0013445B785B
S214002240013B032B31D801A252F823F0772200007D
S21400225067220000932200005D220000BB681A7807
S214002260FB681A7022E03B695B68FA6812781344D0
S21400227000221A701AE0FB79002206211846FFF7A2
S214002280BBFC3B695B68FA681278134400221A703C
S2140022900CE07B69DA7DFB681A703B695B68FA685C
S2140022A01278134400221A7000E000BF00BF1837EF
S2140022B0BD4680BD549102002415002080B487B02E
S2140022C000AF03460A46FB711346BB710023FB8230
S2140022D00023BB7400237B7500237B74FF23FB74F1
S2140022E0FA791346DB0013449B002B4A1344FB6029
S2140022F0FB689A68BB791B011344DB68BB6000234C
S2140023003B753CE0BB685A683B7D13441B787B7486
S214002310FB689A687B7C1B011344DB88FB82FB68A6
S2140023209A687B7C1B0113441B7ABB7400237B7565
S2140023301BE0FB8A5A1CFA821A46184B9B5CDBB2DF
S214002340FF2B0FD0FB681A69BB6859683B7D0B44AE
S2140023501B781946FB685B79CB1A013313441B784C
S214002360FB7406E07B7D01337B757A7DBB7C9A42ED
S214002370DFD3FB7CFF2B08D13B7D01333B75BB686D
S2140023801B783A7D9A42BDD300E000BFFB7C18461E
S2140023901C37BD4680BC7047549102007C85FF1FE9
S2140023A080B487B000AF03460A46FB711346BB7184
S2140023B0FA791346DB0013449B002A4A13443B6118
S2140023C03B699A68BB791B011344FB60FB681B786A
S2140023D0002B16D1FB68DB88FB82FB681B7AFB723E
S2140023E000237B7509E0FB8A1F4AFF21D154FB8A34
S2140023F00133FB827B7D01337B757A7DFB7A9A42C3
S214002400F1D33B699A68BB791B0113441B78012BF7
S21400241023D1FB68DB685B681B78BB723B699A68F4
S214002420BB7A1B011344DB88FB823B699A68BB7A44
S2140024301B0113441B7AFB7200237B7509E0FB8AA1
S214002440094AFF21D154FB8A0133FB827B7D01338D
S2140024507B757A7DFB7A9A42F1D300BF1C37BD4666
S21400246080BC7047549102007C85FF1F80B485B005
S21400247000AF03460A46FB711346BB71FF23BB73CE
S214002480FA791346DB0013449B00114A1344BB60E1
S214002490BB681B79FB7312E0BB681A69FB7B1344AD
S2140024A01B78BA799A4207D1BB685A79FB7B1344EA
S2140024B0DBB2013BBB7305E0FB7B013BFB73FB7BA5
S2140024C0002BE9D1BB7B18461437BD4680BC70474D
S2140024D05491020080B58AB000AF0346FB710B46EC
S2140024E0BB7113467B71FA791346DB0013449B00DD
S2140024F0554A13443B62FB795B01544A1344FB6123
S214002500BA79FB7911461846FFF7B0FF0346FB760B
S214002510FB7EFF2B00F09480FB695B687B613B6A67
S2140025209A68FB7E1B0113445A78FB691A723B6A51
S2140025309A68FB7E1B0113449B887B827B79002B69
S2140025402AD1FA7940491346DB0013449B000B441A
S2140025501D331B781A461346DB009B1A9B003C4A29
S2140025601344FB60002387F827300EE097F82730E7
S2140025707A69134497F82720F9680A44527A1A7041
S21400258097F82730013387F82730FB691B7A97F8CE
S21400259027209A42EAD353E03B6ADB7883F00103B4
S2140025A0DBB2002B1AD0002387F827300FE07A8A98
S2140025B097F82730134497F8272079690A4411784A
S2140025C0244AD15497F82730013387F82730FB691F
S2140025D01B7A97F827209A42E9D331E0FA791A490C
S2140025E01346DB0013449B000B441D331B781A462E
S2140025F01346DB009B1A9B00154A1344FB60FB68DE
S2140026007A8A5A82FB691A7AFB681A75002387F859
S21400261027300FE097F8273097F8272079690A4483
S2140026201178FA6813440A465A7297F8273001332D
S21400263087F82730FB691B7A97F827209A42E9D358
S21400264000BF2837BD4680BD54910200C414002048
S214002650241500202C85FF1F80B487B000AF0346EA
S214002660FB71FB795B01274A13447B617B699B7A8C
S214002670FB747B6900229A727B695B7ABB747B6908
S214002680DB7B7B747B691033FB60FB681B78C3F3D2
S2140026900003DBB21A46FB7C1343DBB203F00103F4
S2140026A0D9B2FA68137861F300031370FB681B78DD
S2140026B0C3F34003DBB21A46BB7C1343DBB203F022
S2140026C00103D9B2FA68137861F3410313707B7C77
S2140026D003F00103D9B2FA68137861F3820313702A
S2140026E07B695A7BFB685A707B69DB7A002B04D0C7
S2140026F0FA68137843F00803137000BF1C37BD4612
S21400270080BC7047C414002080B586B000AF034676
S2140027100A46FB711346BB71FA791346DB00134475
S2140027209B001F4A13447B61FA791D491346DB0060
S21400273013449B000B441D331B781A461346DB00DC
S2140027409B1A9B00174A13443B61BA79FB791146E2
S2140027501846FFF78BFE0346FB73FB7BFF2B1BD055
S2140027607B69DB78002B17D03B691B78BB733B6912
S214002770BA7B5A707B699A68FB7B1B011344DB6843
S214002780BB60BB681A7A3B691A703B695B683A693A
S2140027901278134400221A7000BF1837BD4680BD59
S2140027A0549102002415002080B489B000AF03467F
S2140027B00A46FB711346BB71FB795B01554A13440D
S2140027C0FB61FA791346DB0013449B00524A13441C
S2140027D0BB61FB699B7AFB75FB6900229A72FB69F9
S2140027E05B7ABB75FB695B7D002B01D0012300E0A3
S2140027F000237B75FB69DB7B3B75FB6910333B6114
S2140028003B7D03F00103D9B23A69137861F3820382
S21400281013703B691B78C3F30003DBB21A46FB7DDB
S2140028201343DBB203F00103D9B23A69137861F3BC
S214002830000313703B691B78C3F34003DBB21A46F0
S214002840BB7D1343DBB203F00103D9B23A691378B8
S21400285061F341031370FB695A7B3B695A70FB694D
S214002860DB7A002B04D03A69137843F00803137020
S214002870BB79082B04D03A69137843F01003137021
S214002880BB69DB78002B2CD0FA7923491346DB0092
S21400289013449B000B441D331B781A461346DB007B
S2140028A09B1A9B001D4A1344FB603A6913786FF32A
S2140028B086131370FB681B78FB72BB699A69FB7AF8
S2140028C0DB0013445B78042B05D13A69137843F098
S2140028D02003137018E03A6913786FF345131370EA
S2140028E012E03A6913786FF3451313707B7D03F09B
S2140028F00103D9B23A69137861F3861313703A6903
S21400290013786FF3C713137000BF2437BD4680BC1F
S214002910704700BFC4140020549102002415002004
S21400292080B586B000AF03460A46FB711346BB71FE
S214002930FA791346DB0013449B00254A13443B6197
S214002940BA79FB7911461846FFF790FD0346FB73EC
S214002950FB7BFF2B37D0FB791E4A5B011344043305
S2140029601B681B780121184600F070F80346BB73FD
S2140029703B699A68FB7B1B011344DB68BB60002342
S214002980FB751BE03B691A69BB685968FB7D0B4405
S2140029901B7819463B695B79CB1A013313441B78C5
S2140029A0BA7B9A4207D1B97BFB7901221846FFF71A
S2140029B091FD00BF07E0FB7D0133FB75BB681B780C
S2140029C0FA7D9A42DED300BF1837BD4680BD00BFF1
S2140029D054910200C414002080B483B000AF786025
S2140029E07B684FF4FA7202FB03F3054AB2FBF3F37B
S2140029F09BB201339BB218460C37BD4680BC70476D
S214002A008051D60280B485B000AF78600B46FB706C
S214002A10FB7801339BB21A46D200D31A5B00FB81C7
S214002A20FB89094A02FB03F27B684FF4FA7101FB4B
S214002A3003F3B2FBF3F39BB201339BB21846143791
S214002A40BD4680BC704700BF40420F0080B582B0D4
S214002A5000AF03460A46FB711346BB71BA79FB7991
S214002A601146184609F01DFB034618460837BD46B2
S214002A7080BD0000B0B586B000AF0346FB710123F1
S214002A80BB82FA791346DB0013449B004A4A134480
S214002A903B61FB795B01494A1344FB60FA791346B4
S214002AA09B0013445B00464A1A44FB685A60FB7955
S214002AB0444A52F82330BB603B691B6A5B79002BA3
S214002AC023D0FC794FF41660FFF786FF03461A46BC
S214002AD03D4B23F814200123FB7512E0FD79FB7DA6
S214002AE05C1EFB7D19464FF41660FFF78BFF03460E
S214002AF01946364AEB00234422F81310FB7D0133B7
S214002B00FB75FB7D082BE9D926E0FC793B691B6A3F
S214002B101B681846FFF760FF03461A462A4B23F841
S214002B2014200123FB7514E0FD79FB7D5C1E3B69D8
S214002B301B6A1B68FA7D11461846FFF763FF0346BB
S214002B401946224AEB00234422F81310FB7D01337A
S214002B50FB75FB7D082BE7D9FB791C4A1B01134448
S214002B600E331A88FB681A833B699A8AFB685A8375
S214002B703B69196AFB792C2202FB03F3144A1344BF
S214002B801A46B86809F031FB0346BB82BB8A002BA5
S214002B9007D11049B86809F03CFBFB790E4A0021C2
S214002BA0D154BB8A002B14BF01230023DBB2184686
S214002BB01837BD46B0BD00BF54910200C4140020B3
S214002BC01C010020B88D0200E0000020E800002074
S214002BD05C000020892F00001801002080B586B018
S214002BE000AF03460A46FB711346BB71FB795B01D7
S214002BF0144A13447B6101237B82FB79124A52F804
S214002C002330FB60FB79114A1B0113440E331A88EC
S214002C10FB790F4931F813309BB213449AB27B69A3
S214002C201A83BB791946F86809F08AFB03467B824B
S214002C307B8A002B01D1002300E0FF2318461837BB
S214002C40BD4680BDC4140020B88D0200E8000020F8
S214002C50E000002080B584B000AF0346FB7101237E
S214002C60FB81FB79094A52F82330BB60B86809F04B
S214002C700DFB0346FB81FB89002B01D1002300E0FE
S214002C80FF2318461037BD4680BD00BFB88D020032
S214002C9080B584B000AF0346FB710123FB81FB794E
S214002CA0094A52F82330BB60B86809F011FB0346A6
S214002CB0FB81FB89002B01D1002300E0FF2318468F
S214002CC01037BD4680BD00BFB88D020080B586B007
S214002CD000AF03460A46FB711346BB710123FB8215
S214002CE0BB79082B29D8BB79002B26D0FB79184A4C
S214002CF05B01134404331B683B61FB79154A52F8A9
S214002D002330FB60FB79124A5B0113440833BA791F
S214002D101A70FA79BB79013B0F49D200134431F897
S214002D2013301946F86809F0FEFABB791A46396975
S214002D30F86809F07FFA0346FB82FB8A002B01D174
S214002D40002300E0FF2318461837BD4680BD00BFAD
S214002D50C4140020B88D0200E800002080B584B0BE
S214002D6000AF03460A46FB711346BB710123FB8185
S214002D70FB79164A52F82330BB60BB79082B1BD868
S214002D80BB79002B18D0FA79BB79013B1049D200E9
S214002D90134431F813301946B86809F0C4FAFB79C1
S214002DA00C4A5B01134404331B68BA791946B868A9
S214002DB009F056FA0346FB81FB89002B01D100235C
S214002DC000E0FF2318461037BD4680BDB88D0200D0
S214002DD0E8000020C4140020B0B590B000AF034651
S214002DE0FB71FB79614A52F82330BB63FB79604A7A
S214002DF02C2101FB03F3134407F108041D460FCDF5
S214002E000FC40FCD0FC495E8070084E80700FB79D0
S214002E105B01584A13447B63B86B09F079FAFB7977
S214002E20002205211846FEF7E7FE97F82330DBB2AE
S214002E30023B072B00F28F8001A252F823F000BF5E
S214002E40612E0000072F0000072F0000072F00004C
S214002E50072F0000572F0000572F00002F2F0000CD
S214002E607B6B5B8B5A1E91B27A6B5183002B13D10E
S214002E70FB79FF2208211846FEF7CEFEFA793E4976
S214002E801346DB0013449B000B4414331A887B6BF9
S214002E905A83B86B09F01CFAFB79384AD35C002BCE
S214002EA05BD0FB79354A0021D154FC79324B1B6A42
S214002EB01B681846FFF790FD03461A46304B23F86A
S214002EC01420012387F83F3018E0FD7997F83F304B
S214002ED05C1E294B1B6A1B6897F83F201146184654
S214002EE0FFF790FD03461946264AEB00234422F8D6
S214002EF0131097F83F30013387F83F3097F83F308C
S214002F00082BE2D929E07B6B1B8B5A1E91B27A6B99
S214002F101183002B23D1B86B09F0EAF9FB79194A23
S214002F201B0113440E331A887B6B1A8317E07B6BE6
S214002F301B8B5A1E91B27A6B1183002B11D1B86B82
S214002F4009F0A4F9FB790F4A1B0113440E331A88C3
S214002F507B6B1A8305E000BF04E000BF02E000BF01
S214002F6000E000BF00BF4037BD46B0BDB88D0200D0
S214002F705C000020C41400205491020018010020B8
S214002F80E0000020E800002080B58AB000AF78603E
S214002F9039603B687B627B6A1B7E87F823300023A0
S214002FA0FB737B4A7B6813441B7887F8223097F8BC
S214002FB022201346DB0013449B00764A1344FB6131
S214002FC097F822305B01744A1344BB617B6A9B7E90
S214002FD0DBB20C2B00F2D08001A252F823F000BF27
S214002FE0F330000079310000E7300000AF30000019
S214002FF079310000D3300000153000002B3000007F
S21400300099300000833000006D3000004130000031
S214003010573000000023FB7597F82320F97D97F8BA
S21400302022301846FEF7F8FDA9E00323FB7597F853
S2140030302320F97D97F822301846FEF7EDFD9EE036
S2140030400123FB7597F82320F97D97F82230184660
S214003050FEF7E2FD93E00223FB7597F82320F97D47
S21400306097F822301846FEF7D7FD88E00523FB7553
S21400307097F82320F97D97F822301846FEF7CCFD06
S2140030807DE00623FB7597F82320F97D97F822301C
S2140030901846FEF7C1FD72E00423FB7597F823205F
S2140030A0F97D97F822301846FEF7B6FD67E097F8E8
S2140030B022303A4A1B0113440E331A8897F82230FE
S2140030C0374931F813309BB213449AB2BB691A835E
S2140030D055E097F82230314A1B0113440E331A8804
S2140030E0BB691A834BE097F822302E4A0121D1544F
S2140030F045E07B6A93F82030DBB2002B3ED0BB69FC
S2140031009B7D012B21D1BB691B7B3D2B1DD197F8E5
S214003110222020491346DB0013449B000B441D333A
S2140031201B781A461346DB009B1A9B001E4A134464
S2140031303B613B695A783B691A703B695B683A6940
S2140031401278134400221A7018E007F10F0319468C
S214003150786809F0ABF87B6A9B7ADAB2FB7B9A4216
S2140031600CD90723FB7597F82320F97D97F82230B2
S2140031701846FEF751FD01E000BF00E000BFFB6906
S2140031809A8ABB695A8300BF2837BD4680BD00BFF8
S214003190B48D020054910200C4140020E800002000
S2140031A0E0000020180100202415002080B400AFA5
S2140031B0084B094A5A60074B5B68064B42F22012DE
S2140031C01A60044B4FF6FF729A6000BFBD4680BC83
S2140031D0704700BF0020054020C528D980B483B0C2
S2140031E000AF4FF0E023D3F80C3D7B607B689BB2CA
S2140031F07B607B6843F0BF6343F400337B607B688F
S21400320043F004037B604FF0E0227B68C2F80C3D7D
S21400321000BF0C37BD4680BC7047000080B48FB03E
S21400322000AF394B3B63394B3B62394B7B61394BC3
S214003230FB62394BFB61394B3B61394BBB62394B07
S214003240FB60394B7B62394BBB61394BBB6009E095
S2140032503B6A1A783B6B1A703B6B01333B633B6AE5
S21400326001333B627A693B6A9A42F1D109E0FB6915
S2140032701A78FB6A1A70FB6A0133FB62FB6901333A
S214003280FB613A69FB699A42F1D105E0BB6A00220C
S2140032901A70BB6A0133BB62FA68BB6A9A42F5D100
S2140032A009E0BB691A787B6A1A70BB690133BB6197
S2140032B07B6A01337B62BA68BB699A42F1D100230C
S2140032C0FB711C4A1C4B9A4216D000237B630AE013
S2140032D0194A7B6B52F8232016497B6B41F8232052
S2140032E07B6B01337B63154B9B087A6B9A42EFD35B
S2140032F0134B104A1A6002E0114B0F4A1A6000BFC7
S2140033003C37BD4680BC70470084FF1F989602007D
S2140033100C9C02007489FF1F0C9C0200689C020033
S214003320000000200422002000000020689C02000C
S214003330689C02000080FF1F0000000000040000E0
S21400334008ED00E080B485B000AF78607B68D3F805
S2140033509030FB60FB68DB0903F00103FB60FB6851
S214003360002B14BF01230023DBB218461437BD46DA
S21400337080BC704780B485B000AF78607B681B6CFB
S214003380FB60FB685B0903F00303FB60FB68DBB2D2
S21400339018461437BD4680BC704780B485B000AF71
S2140033A078600B46FB707B681B6CFB60FB6823F049
S2140033B06003FB60FB785B0103F06003FA6813436D
S2140033C0FB607B68FA681A6400BF1437BD4680BC91
S2140033D0704780B485B000AF78607B685B6CFB603C
S2140033E0FB68DBB2FB60FB68DBB218461437BD46F1
S2140033F080BC704780B485B000AF78600B46FB7029
S214003400FB78002B01D0FB7800E00123FB737B6880
S2140034105B6CBB60BB6823F0FF03BB60FB7BBA68DA
S2140034201343BB607B68BA685A6400BF1437BD4656
S21400343080BC704780B485B000AF78600B46FB70E8
S2140034407B681B6CFB60FB6823F00C03FB60FB785F
S2140034509B0003F00C03FA681343FB607B68FA6872
S2140034601A6400BF1437BD4680BC704780B485B070
S21400347000AF78600B46FB707B681B6CFB60FB68DC
S21400348023F00303FB60FB7803F00303FA6813439F
S214003490FB607B68FA681A6400BF1437BD4680BCC0
S2140034A0704780B485B000AF78607B68D3F8903002
S2140034B0FB60FB689B0903F00103FB60FB68DBB263
S2140034C018461437BD4680BC704780B485B000AF40
S2140034D078600B46FB707B68D3F89030FB60FB6827
S2140034E023F04003FB60FB789B0103F04003FA687F
S2140034F01343FB607B68FA68C3F8902000BF14375C
S214003500BD4680BC7047000080B487B000AF7860CE
S2140035100B46FB701B4B3B6107F1080300221A6049
S2140035205A603023BB604FF44053FB6000237B613E
S2140035303B699A697B689B0007F118010B4453F8B6
S214003540103CDB4313407B617B68002B02D0012BD1
S21400355008D00FE0FB781B0103F030037A691343B1
S2140035607B6107E0FB781B0303F440537A6913433F
S2140035707B6100BF3B697A699A6100BF1C37BD4614
S21400358080BC70470080044080B487B000AF78608D
S2140035900B46FB701B4B3B6107F1080300221A60C9
S2140035A05A600123BB604FF48073FB6000237B618D
S2140035B03B699A697B689B0007F118010B4453F836
S2140035C0103CDB4313407B617B68002B02D0012B51
S2140035D007D00EE0FB7803F001037A6913437B61A2
S2140035E007E0FB781B0203F480737A6913437B6160
S2140035F000BF3B697A699A6100BF1C37BD4680BC34
S214003600704700BF0080044080B485B000AF78608B
S2140036100B46FB707B68D3F89030FB60FB6823F0AA
S2140036200403FB60FB78002B01D0042300E000239A
S214003630FA681343FB607B68FA68C3F8902000BF03
S2140036401437BD4680BC704780B485B000AF786044
S2140036500B46FB707B68D3F89030FB60FB6823F06A
S2140036600303FB60FB7803F00303FA681343FB6075
S2140036707B68FA68C3F8902000BF1437BD4680BC4C
S214003680704780B485B000AF78600B46FB707B68EF
S214003690D3F89430FB60FB6823F00803FB60FB78EC
S2140036A0002B01D0082300E00023FA681343FB60D8
S2140036B07B68FA68C3F8942000BF1437BD4680BC08
S2140036C0704780B483B000AF78600B46FB70FB7821
S2140036D0002B06D07B685B6843F400227B685A6048
S2140036E005E07B685B6823F400227B685A6000BFB5
S2140036F00C37BD4680BC704780B485B000AF78609C
S2140037007B68D3F89430FB60FB689B0803F00103EA
S214003710FB60FB68002B14BF01230023DBB21846B6
S2140037201437BD4680BC704780B485B000AF786063
S2140037300B46FB707B68D3F89430FB60FB6823F085
S2140037400403FB60FB78002B01D0042300E0002379
S214003750FA681343FB607B68FA68C3F8942000BFDE
S2140037601437BD4680BC704780B485B000AF786023
S2140037707B68D3F89430FB60FB6803F00303FB60C0
S214003780FB68DBB218461437BD4680BC704780B471
S21400379085B000AF78600B46FB707B68D3F894303A
S2140037A0FB60FB6823F00303FB60FB7803F0030376
S2140037B0FA681343FB607B68FA68C3F8942000BF7E
S2140037C01437BD4680BC704780B485B000AF7860C3
S2140037D07B68D3F89430FB60FB68DB0903F00103D9
S2140037E0FB60FB68002B14BF01230023DBB21846E6
S2140037F01437BD4680BC704780B485B000AF786093
S2140038000B46FB707B68D3F89430FB60FB6823F0B4
S2140038108003FB60FB78002B01D0802300E00023B0
S214003820FA681343FB607B68FA68C3F8942000BF0D
S2140038301437BD4680BC704780B487B000AF786050
S214003840084611461A460346FB700B463B80134655
S214003850BB703B88B3F5706F1CD33B8840F605728F
S214003860934217D83B88A3F570633B611D4BFB6002
S214003870FB685B6823F4E022FB685A60FB685A68C2
S2140038803B691B0403F4E0231A43FB685A601523C4
S214003890FB8201E03B88FB82FA787B6853F8223093
S2140038A0BB60BB6823F01F03BB60FB8A03F01F03EB
S2140038B0BA681343BB60BB6823F04003BB60BB78A9
S2140038C0002B01D0402300E00023BA681343BB60FE
S2140038D0FA787B68B96843F8221000BF1C37BD46EB
S2140038E080BC70470080044080B588B000AF786028
S2140038F03960334A7B6852F82330FB61314B1B88B2
S2140039003B820023FB6007F110027B6813441B78A0
S21400391007F10C021146184603F00CF803467B83A9
S214003920FB683A681278D340FB603B681B78194600
S214003930F869FFF732FD3B685B781946F869FFF7D0
S21400394059FD3B689B781946F869FFF773FD3B689D
S214003950DB781946F869FFF789FD3B681B7919463D
S214003960F869FFF7B2FD3B685B7919467868FFF7A0
S214003970CBFD3B689B7919467868FFF705FE3B68E8
S214003980DB791946F869FFF73FFE3B681B7A194654
S214003990F869FFF759FE3B685B7A1946F869FFF746
S2140039A070FE7B68002B07D1074B7B613B689B7AD8
S2140039B019467869FFF785FE00BF2037BD4680BDF3
S2140039C0E4910200E08802000080044080B586B0E2
S2140039D000AFF8600B467A60FB72084AFB6852F844
S2140039E023307B617B685A887B681B78F97A786914
S2140039F0FFF722FF00BF1837BD4680BDE4910200E6
S214003A0080B584B000AF7860074A7B6852F82330F0
S214003A10FB6000BFF868FFF795FC0346002BF9D162
S214003A2000BF1037BD4680BDE491020080B487B069
S214003A3000AFF8600B467A60FB720C4AFB6852F8DF
S214003A4023307B61FA7A7B69123253F822303B616D
S214003A503B69C3F30B033B613B699AB27B681A80F0
S214003A6000BF1C37BD4680BC704700BFE491020013
S214003A7080B588B000AF7860524A7B6852F8233031
S214003A80BB61B869FFF738FE0346FB75B869FFF7F8
S214003A906BFE0346BB75B869FFF703FD03467B75EF
S214003AA0B869FFF796FC03463B750321B869FFF734
S214003AB06EFE0121B869FFF737FE0021B869FFF7EF
S214003AC004FD0C21B869FFF795FCBB690022C3F81A
S214003AD0B420BB690022C3F8B820BB690022C3F833
S214003AE0BC20BB690022C3F8C020BB690022C3F813
S214003AF0C420BB690022C3F8C820BB690022C3F8F3
S214003B00CC20314B1B88BB810023BB60B869FFF714
S214003B1031FC0346FB740023FB7707F10C027B683D
S214003B2013441B7807F108021146184602F002FFFC
S214003B3003463B82BA68FB7C22FA03F3234A93428D
S214003B4018D9BB68224A934202D80123FB770CE0BF
S214003B50BB68204A934202D80223FB7705E0BB6885
S214003B601D4A934201D80323FB77FB7F1946B869A9
S214003B70FFF713FC0121B869FFF73EFE00BFB869E6
S214003B80FFF722FE0346002BF9D1FB7C1946B869E5
S214003B90FFF703FCFB7D1946B869FFF7C5FDBB7D43
S214003BA01946B869FFF7F3FD7B7D1946B869FFF73C
S214003BB08CFC3B7D1946B869FFF71CFC00BF20371C
S214003BC0BD4680BDE4910200E088020040787D0199
S214003BD081F0FA0203E1F50507C2EB0B80B483B06F
S214003BE000AF78607B681B691B0903F00303184667
S214003BF00C37BD4680BC704780B487B000AFF86015
S214003C007B600B46FB721346BB72FB681B697B61CD
S214003C107B6923F03F037B61FB7A002B01D00123F5
S214003C2000E000237A6913437B61BB7A002B01D046
S214003C30022300E000237A6913437B617B689B00C4
S214003C4003F00C037A6913437B613B6A1B0103F0A4
S214003C5030037A6913437B61FB687A691A6100BF97
S214003C601C37BD4680BC704780B485B000AF786016
S214003C700B46FB707B681B6CFB60FB6823F0100335
S214003C80FB60FB78002B01D0102300E00023FA68CD
S214003C901343FB607B68FA681A6400BF1437BD469E
S214003CA080BC704780B485B000AF78607B681B6CC2
S214003CB0FB60FB681B0903F00103FB60FB68002B3D
S214003CC014BF01230023DBB218461437BD4680BC60
S214003CD0704780B485B000AF78600B46FB707B6899
S214003CE01B6CFB60FB6823F00803FB60FB78002B73
S214003CF001D0082300E00023FA681343FB607B68CA
S214003D00FA681A6400BF1437BD4680BC704780B49A
S214003D1085B000AF78607B681B6CFB60FB68DB08D7
S214003D2003F00103FB60FB68002B14BF0123002394
S214003D30DBB218461437BD4680BC704780B485B0E9
S214003D4000AF78600B46FB707B681B6CFB60FB6803
S214003D5023F00403FB60FB78002B01D0042300E073
S214003D600023FA681343FB607B68FA681A6400BF96
S214003D701437BD4680BC704780B485B000AF78600D
S214003D807B681B6CFB60FB689B0803F00103FB6011
S214003D90FB68002B14BF01230023DBB21846143740
S214003DA0BD4680BC704780B485B000AF78600B46D7
S214003DB0FB707B681B6CFB60FB6823F00203FB60F8
S214003DC0FB78002B01D0022300E00023FA6813439F
S214003DD0FB607B68FA681A6400BF1437BD4680BC77
S214003DE0704780B485B000AF78607B681B6CFB6062
S214003DF0FB685B0803F00103FB60FB68002B14BF45
S214003E0001230023DBB218461437BD4680BC70473A
S214003E1080B485B000AF78600B46FB707B681B6C87
S214003E20FB60FB6823F00103FB60FB78002B01D0EE
S214003E30012300E00023FA681343FB607B68FA68FE
S214003E401A6400BF1437BD4680BC704780B485B086
S214003E5000AF78607B681B6CFB60FB6803F00103B7
S214003E60FB60FB68002B14BF01230023DBB218465F
S214003E701437BD4680BC704780B483B000AF78600E
S214003E807B68DB681B0E03F0030318460C37BD4641
S214003E9080BC704780B483B000AF78607B68DB6816
S214003EA09B0E03F0030318460C37BD4680BC7047D4
S214003EB080B483B000AF78607B68DB681B0F03F0CC
S214003EC0030318460C37BD4680BC704780B483B0E9
S214003ED000AF78607B68DB689B0F03F0030318462F
S214003EE00C37BD4680BC704780B483B000AF7860A6
S214003EF07B681B6903F00203002B14BF0123002319
S214003F00DBB218460C37BD4680BC704780B483B021
S214003F1000AF78607B681B6903F00103002B14BFB9
S214003F2001230023DBB218460C37BD4680BC704721
S214003F3080B483B000AF78607B681B699B0803F091
S214003F40030318460C37BD4680BC704780B483B068
S214003F5000AF78607B685B6803F40063002B14BFD7
S214003F6001230023DBB218460C37BD4680BC7047E1
S214003F7080B483B000AF78607B685B681B0A03F090
S214003F80070318460C37BD4680BC704780B483B024
S214003F9000AF78607B685B681B0903F00F03184668
S214003FA00C37BD4680BC704780B487B000AFF86061
S214003FB07A603B600B46FB72FB685B687B617B69E3
S214003FC023F47F637B61FB7A002B02D04FF40063FF
S214003FD000E000237A6913437B617B681B01DBB238
S214003FE07A6913437B613B681B0203F4E0637A69DA
S214003FF013437B61FB687A695A6000BF1C37BD4675
S21400400080BC704780B485B000AF786039607B684C
S2140040105B68FB60FB6823F48053FB603B681B0314
S21400402003F48053FA681343FB607B68FA685A60AF
S21400403000BF1437BD4680BC704780B483B000AF65
S21400404078607B689B6E7B6800229A6600BF0C37A0
S214004050BD4680BC704780B485B000AFF8607A601B
S2140040603B600B46FB72FB7A002B02D04FF080526F
S21400407000E000227B685B0003F00E031A433B68F7
S21400408003F001031A43FB689A6600BF1437BD4667
S21400409080BC704780B483B000AF78607B681B6AD2
S2140040A01B0E03F00F0318460C37BD4680BC704746
S2140040B080B483B000AF78607B681B691B0E03F08A
S2140040C00F0318460C37BD4680BC704780B483B0DB
S2140040D000AF78607B681B691B0C03F00F03184663
S2140040E00C37BD4680BC704780B483B000AF7860A4
S2140040F07B681B691B0903F00F0318460C37BD4687
S21400410080BC704780B483B000AF78607B681B6962
S21400411003F00F0318460C37BD4680BC704780B4CA
S21400412087B000AFF860B9607A603B60BB681B067A
S21400413003F070627B681B0403F470231A433B6829
S2140041401B01DBB21A433B6A03F00F0313437B6188
S214004150FB687A695A6100BF1C37BD4680BC704751
S21400416080B487B000AFF860B9607A603B60BB6827
S2140041701B0603F070627B681B0403F470231A436B
S2140041803B681B01DBB21A433B6A03F00F03134381
S2140041907B61FB687A699A6100BF1C37BD4680BCAC
S2140041A0704780B487B000AFF860B9607A603B6053
S2140041B0BB681B0603F070627B681B0403F4702365
S2140041C01A433B681B01DBB21A433B6A03F00F033A
S2140041D013437B61FB687A69DA6100BF1C37BD4612
S2140041E080BC704780B483B000AF78607B68D3F83B
S2140041F0043303F0070318460C37BD4680BC7047EF
S21400420080B483B000AF78607B68D3F804331B0AB1
S21400421003F0070318460C37BD4680BC704780B4D1
S21400422087B000AFF860B9607A60BB6803F0070239
S2140042307B681B0203F4E06313437B61FB687A69C7
S214004240C3F8042300BF1C37BD4680BC704780B44B
S21400425083B000AF78607B68D3F8043203F00703BE
S21400426018460C37BD4680BC704780B483B000AF9C
S21400427078607B68D3F804321B0A03F007031846FD
S2140042800C37BD4680BC704780B487B000AFF8607E
S214004290B9607A60BB6803F007027B681B0203F410
S2140042A0E06313437B61FB687A69C3F8042200BFAE
S2140042B01C37BD4680BC704780B483B000AF7860C2
S2140042C07B68D3F8043103F0070318460C37BD4665
S2140042D080BC704780B483B000AF78607B68D3F84A
S2140042E004311B0A03F0070318460C37BD4680BC92
S2140042F0704780B487B000AFF860B9607A60BB687A
S21400430003F007027B681B0203F4E06313437B6140
S214004310FB687A69C3F8042100BF1C37BD4680BC21
S214004320704780B483B000AF78607B68D3F80436FB
S21400433003F0070318460C37BD4680BC704780B4B0
S21400434083B000AF78607B68D3F804361B0A03F0AE
S214004350070318460C37BD4680BC704780B487B04C
S21400436000AFF860B9607A60BB6803F007027B684C
S2140043701B0203F4E06313437B61FB687A69C3F8AE
S214004380042600BF1C37BD4680BC704780B485B08D
S21400439000AF786039607B681B6AFB60FB6823F0BF
S2140043A07063FB603B681B0603F07063FA68134398
S2140043B0FB607B68FA681A6200BF1437BD4680BC93
S2140043C0704780B485B000AF78607B68D3F8003261
S2140043D0FB60FB685B0E03F00103FB60FB68002BD1
S2140043E014BF01230023DBB218461437BD4680BC39
S2140043F0704780B483B000AF78607B68D3F8003233
S21400440003F08073002B14BF01230023DBB2184691
S2140044100C37BD4680BC704780B483B000AF786070
S2140044207B68D3F8083203F0010318460C37BD4604
S21400443080BC704780B483B000AF78607B68D3F8E8
S214004440003223F400027B68C3F8002200BF0C375A
S214004450BD4680BC704780B483B000AF78607B6890
S2140044600022C3F8002200BF0C37BD4680BC704750
S21400447080B483B000AF78600B46FB70FB7803F027
S21400448001027B68C3F8082200BF0C37BD4680BC1B
S214004490704780B485B000AF7860084611461A466B
S2140044A00346FB700B46BB7013467B70FB78002BF5
S2140044B001D0032200E00122BB78002B01D00423A8
S2140044C000E000231A437B78002B02D04FF4000351
S2140044D000E000231343FB607B68FA68C3F8002201
S2140044E000BF1437BD4680BC704780B485B000AFAF
S2140044F078607B68D3F80033FB60FB685B0E03F0E4
S2140045000103FB60FB68002B14BF01230023DBB212
S21400451018461437BD4680BC704780B483B000AFE1
S21400452078607B68D3F8003303F08073002B14BFE9
S21400453001230023DBB218460C37BD4680BC70470B
S21400454080B483B000AF78607B68D3F8083303F09C
S214004550030318460C37BD4680BC704780B483B052
S21400456000AF78607B68D3F8003323F400027B68E2
S214004570C3F8002300BF0C37BD4680BC704780B42C
S21400458083B000AF78607B684FF08062C3F800238A
S21400459000BF0C37BD4680BC704780B483B000AF08
S2140045A078600B46FB70FB7803F003027B68C3F869
S2140045B0082300BF0C37BD4680BC704780B485B06A
S2140045C000AF78600B46FB701346BB70FB78002B81
S2140045D001D0012200E00922BB78002B02D04FF464
S2140045E0000300E000231343FB607B68FA68C3F80F
S2140045F0002300BF1437BD4680BC704780B485B02A
S21400460000AF78607B68D3F80031FB60FB685B0E18
S21400461003F00103FB60FB68002B14BF012300239B
S214004620DBB218461437BD4680BC704780B483B0F2
S21400463000AF78607B68D3F8003103F08073002BFE
S21400464014BF01230023DBB218460C37BD4680BCDE
S214004650704780B483B000AF78607B68D3F80031D1
S21400466023F400027B68C3F8002100BF0C37BD4668
S21400467080BC704780B483B000AF78607B684FF032
S2140046808062C3F8002100BF0C37BD4680BC70476F
S21400469080B485B000AFF860B9607A603B60BB68F4
S2140046A01B0103F030027B68DB0003F008031A43AB
S2140046B03B689B0003F004031A43FB68C3F8082119
S2140046C000BF1437BD4680BC704780B485B000AFCD
S2140046D07860084611461A460346FB700B46BB70C8
S2140046E013467B70FB78002B02D04FF0011200E0DF
S2140046F00122BB78002B02D04FF4003300E00023E9
S2140047001A437B78002B02D04FF4000300E000230E
S2140047101343FB607B68FA68C3F8002100BF1437B8
S214004720BD4680BC704780B485B000AF78607B68BB
S214004730D3F80036FB60FB685B0E03F00103FB60FA
S214004740FB68002B14BF01230023DBB21846143786
S214004750BD4680BC704780B483B000AF78607B688D
S214004760D3F8003603F08073002B14BF0123002318
S214004770DBB218460C37BD4680BC704780B483B0A9
S21400478000AF78607B68D3F808361B0A03F007038F
S21400479018460C37BD4680BC704780B483B000AF67
S2140047A078607B68D3F808361B0C03F01F031846A6
S2140047B00C37BD4680BC704780B483B000AF7860CD
S2140047C07B68D3F8003623F400027B68C3F8002623
S2140047D000BF0C37BD4680BC704780B483B000AFC6
S2140047E078607B684FF08062C3F8002600BF0C3705
S2140047F0BD4680BC704780B483B000AF78600B467F
S214004800FB701346BB70FB781B0203F4E062BB78B8
S2140048101B0403F4F8131A437B68C3F8082600BF8A
S2140048200C37BD4680BC704780B485B000AF78605A
S214004830084611461A460346FB700B46BB701346E5
S2140048407B70FB78002B02D04FF0011200E00122B3
S214004850BB78002B02D04FF4003300E000231A434D
S2140048607B78002B02D04FF4000300E000231343B4
S214004870FB607B68FA68C3F8002600BF1437BD46A5
S21400488080BC704780B487B000AFF8607B600B4692
S214004890FB721346BB727B681B0603F0E0627B6A02
S2140048A0DB0003F008031A433B6A03F007031A43CE
S2140048B0BB7A002B02D04FF0804300E00023134366
S2140048C07B61FB7A064A32F813301946FB687A6930
S2140048D043F8212000BF1C37BD4680BC704700BF90
S2140048E0EC91020080B483B000AF78600B46FB709A
S2140048F01346BB70BB78002B12D0FB78144A32F8F4
S21400490013301946FB78124A32F813301A467B6881
S21400491053F8223043F080427B6843F8212011E0B0
S214004920FB780B4A32F813301946FB78084A32F8FF
S21400493013301A467B6853F8223023F080427B6897
S21400494043F8212000BF0C37BD4680BC704700BF2F
S214004950EC91020080B485B000AF78600B46FB7027
S214004960FB780C4A32F813301A467B6853F822302C
S214004970FB60FB689B0F03F00103FB60FB68002BEA
S21400498014BF01230023DBB218461437BD4680BC93
S214004990704700BFEC91020080B483B000AF78602F
S2140049A00B46FB70FB78074A32F813301A467B68D2
S2140049B053F822301B0E03F0070318460C37BD468B
S2140049C080BC7047EC91020080B483B000AF786082
S2140049D00B46FB70FB78074A32F813301A467B68A2
S2140049E053F82230DB0803F0010318460C37BD46A7
S2140049F080BC7047EC91020080B483B000AF786052
S214004A000B46FB70FB78074A32F813301A467B6871
S214004A1053F8223003F0070318460C37BD4680BC17
S214004A20704700BFEC91020080B485B000AF78609C
S214004A300B46FB707B689B78FB73FB7B03F07F0366
S214004A40FB73FB7883F00103DBB2DB01DAB2FB7B9E
S214004A501343FB737B68FA7B9A7000BF1437BD461E
S214004A6080BC704780B485B000AF78607B689B7868
S214004A70FB73FB7BDB09FB73FB7B002B0CBF01236B
S214004A800023DBB218461437BD4680BC704780B49E
S214004A9085B000AF78600B46FB70FB78FB7397F928
S214004AA00F30002B06DA2023BB73FA7BBB7B134444
S214004AB0DBB2FB73FB7B7B737B681B793B733B7BB7
S214004AC023F01F033B7397F90D3003F01F035AB210
S214004AD097F90C3013435BB23B737B683A7B1A71D1
S214004AE000BF1437BD4680BC704780B483B000AFAB
S214004AF078607B685B69DBB218460C37BD4680BCC5
S214004B00704780B5A2B000AF78607B68C7F8843085
S214004B107B68002B08D107F10803184600F08CF9D3
S214004B2007F10803C7F88430D7F88430184600F039
S214004B301FF80346A7F88230B7F88230002B11D151
S214004B40D7F884306C33184600F06CF8D7F8843009
S214004B504433184600F0C2F8D7F884307433184649
S214004B6000F04EF9B7F8823018468837BD4680BD4B
S214004B7080B584B000AF78600023FB817B68002B93
S214004B8046D001F0B3F80346FB81FB89002B04D125
S214004B90786801F0DFF80346FB81FB89002B37D1EC
S214004BA07B6893F83030002B03D07B68DB6A1B4AA7
S214004BB013607B6893F83530002B06D07B6893F83B
S214004BC0343019461648FFF7E1FB7B6893F843300C
S214004BD0002B1DD07B6836331946012001F030FAD1
S214004BE00346FB81FB89002B07D17B683A331946C5
S214004BF0022001F025FA0346FB81FB89002B07D132
S214004C007B683E331946032001F01AFA0346FB81FF
S214004C10FB8918461037BD4680BD00BF7C150020B6
S214004C2000400640F0B587B002AF78607B68002B86
S214004C304DD07B685B68002B49D00023FB6041E0C9
S214004C407B685968FA6813469B0013440B441B782C
S214004C50002219462048FFF745FE7B685968FA6827
S214004C6013469B0013440B4418787B685968FA680F
S214004C7013469B0013440B445C787B685968FA68BB
S214004C8013469B0013440B449B781E467B6859686A
S214004C90FA6813469B0013440B441B791D467B6839
S214004CA05968FA6813469B0013440B44DB7801935B
S214004CB000953346224601460748FFF7E3FDFB68AA
S214004CC00133FB607B681A68FB689A42B8D800BF5D
S214004CD01437BD46F0BD00BF0050064080B586B014
S214004CE002AF78607B681B78002B09D07B68597808
S214004CF07B689B781A467B68DB783F48FFF754F959
S214004D007B681B79002B0DD07B68197A7B68DA7973
S214004D107B689B7918467B685B7900930346364828
S214004D20FEF76AFF7B681B7F002B1FD07B685B7FCC
S214004D3019463148FFF76CF87B689B7F19462E486A
S214004D40FFF731F87B68DB7F19462B48FEF7F6FF46
S214004D507B6893F8203019462748FEF7BAFF7B6831
S214004D6093F8213019462448FEF77EFF7B681B7BAC
S214004D70002B15D00023FB730FE0FB7B022B09D81A
S214004D80FA7BFB7B796802339B000B449B681B49CC
S214004D9041F82230FB7B0133FB73FB7B022BECD903
S214004DA07B6893F82230002B21D01348FFF745F993
S214004DB07B6893F8243019460F48FFF723F9002341
S214004DC0002200210C48FFF746F97B6893F8233051
S214004DD0002B0CD07B6893F823107B6893F8253063
S214004DE01A467B6893F826300348FFF734F900BF6D
S214004DF01037BD4680BD00BF0080044080150020EF
S214004E0080B582B000AF78607B681B78002B0CD032
S214004E107B685B7819460748FFF706FE7B6893F9C0
S214004E20023019460348FFF732FE00BF0837BD467A
S214004E3080BD00BF00D0074080B483B000AF78606C
S214004E407B680122DA707B6800221A717B68012277
S214004E505A717B6800229A717B6801221A707B68FF
S214004E6001225A707B6801229A707B6801229A732D
S214004E707B6801221A737B6800225A737B680022C3
S214004E80DA717B6801221A727B6801225A727B688B
S214004E90012283F830207B680022DA627B680122D8
S214004EA05A777B68754A1A617B6800221A757B6898
S214004EB000221A777B6801225A757B6800229A7551
S214004EC07B680222DA757B6801221A767B680122EB
S214004ED05A767B68012283F828207B68002283F8B4
S214004EE020207B68002283F827207B68002283F836
S214004EF021207B680C2283F822207B68002283F81E
S214004F0023207B68012283F824207B68012283F813
S214004F1025207B68012283F835207B68032283F8EE
S214004F2034207B68012283F843207B68032283F8C1
S214004F3039207B68002283F838207B68012283F8BA
S214004F4037207B68012283F836207B68022283F8AC
S214004F503D207B68012283F83C207B68002283F892
S214004F603B207B68032283F83A207B68062283F87E
S214004F7041207B68002283F840207B68012283F86A
S214004F803F207B68032283F83E207B683C4A1A67F2
S214004F907B682022DA667B68012283F844207B68DF
S214004FA0002283F845207B68002283F846207B6831
S214004FB0002283F847207B68012283F848207B681C
S214004FC0012283F84C207B68012283F84B207B6803
S214004FD0002283F84A207B68002283F849207B68F9
S214004FE0012283F860207B68012283F861207B68B9
S214004FF0012283F862207B68012283F863207B68A5
S214005000012283F864207B68012283F865207B6890
S214005010012283F86B207B68012283F850207B688E
S21400502000225A657B6800229A657B680022DA6552
S2140050307B68012283F866207B68012283F867205C
S2140050407B68002283F868207B68002283F869204A
S2140050507B68002283F86A207B68012283F874202C
S2140050607B68012283F875207B68002283F876200F
S21400507000BF0C37BD4680BC704700BF00127A00E8
S2140050809487FF1F80B584B000AF03463960FB717C
S2140050900023FB810023BB60FB79112B00F2838089
S2140050A001A252F823F000BFF1500000FB500000B0
S2140050B0055100000F510000175100001F5100005D
S2140050C0275100002F510000375100003F510000CB
S2140050D047510000535100005F5100006B51000023
S2140050E077510000835100008F5100009B51000053
S2140050F0002000F013FFB86058E0012000F00EFF1B
S214005100B86053E0022000F009FFB8604EE000F0FF
S2140051101BFBB8604AE001F053F9B86046E001F0C6
S2140051206BF9B86042E001F033F9B8603EE001F098
S21400513081F9B8603AE0234B1B68BB6036E000F0AC
S2140051407BFBB86032E00021042001F093F8B860E1
S2140051502CE00121042001F08DF8B86026E0002143
S214005160052001F087F8B86020E00121052001F055
S21400517081F8B8601AE00021062001F07BF8B860DC
S21400518014E00121062001F075F8B8600EE0002159
S214005190072001F06FF8B86008E00121072001F051
S2140051A069F8B86002E00423FB8100BF3B68002B6F
S2140051B002D03B68BA681A60FB8918461037BD46AD
S2140051C080BD00BF7C15002080B586B000AF0346CA
S2140051D03960FB710023FB8200233B61FB79153BA2
S2140051E00E2B00F2E18001A252F823F029520000B3
S2140051F045520000615200007D52000099520000A6
S214005200A1520000A9520000BF520000EF52000059
S2140052101353000027530000415300005B53000067
S214005220755300008F5300007348FEF725FEF860A4
S214005230FB68022B00F2BB80704AFB6852F82330F2
S2140052403B61B4E06C48FEF725FEF860FB68022B75
S21400525000F2AF80694AFB6852F823303B61A8E051
S2140052606548FEF725FEF860FB68022B00F2A38077
S214005270624AFB6852F823303B619CE05E48FEF7CA
S21400528025FEF860FB68022B00F297805B4AFB68FD
S21400529052F823303B6190E000F056FA38619FE008
S2140052A000F004FB38619BE05548FFF7DBFB034644
S2140052B0002B00F0848001F0EFF838617FE0504862
S2140052C0FFF7D0FB0346002B7BD04B48FEF70CFEC7
S2140052D00346002B08D04848FEF718FE0346002B6E
S2140052E002D04FF47A7300E000233B6169E0444843
S2140052F0FFF7B8FB0346002B65D03F48FEF7F4FDEA
S2140053000346002B02D04FF4FA4300E000233B6133
S21400531059E03B48FFF7A6FB0346002B55D04FF459
S214005320FA333B6151E03448FEF7BCFC034683F099
S2140053300103DBB2002B4AD04FF48073FB8246E0B9
S2140053402D48FEF7E4FC034683F00103DBB2002B96
S2140053503FD04FF48073FB823BE02748FEF70CFDFE
S214005360034683F00103DBB2002B34D04FF4807386
S214005370FB8230E02048FEF734FD034683F001034D
S214005380DBB2002B29D04FF48073FB8225E01A484D
S214005390FEF75CFD034683F00103DBB2002B1ED054
S2140053A04FF48073FB821AE00423FB8218E000BFF0
S2140053B016E000BF14E000BF12E000BF10E000BF20
S2140053C00EE000BF0CE000BF0AE000BF08E000BF30
S2140053D006E000BF04E000BF02E000BF00E000BF40
S2140053E03B68002B02D03B683A691A60FB8A184675
S2140053F01837BD4680BD00BF0080044080150020E1
S21400540000D0074080B584B000AF0346FB71002390
S214005410FB81FB79242B0ED9FB79332B0BD0FB7940
S214005420392B08D0FB793B2B05D0FB79402B02D0DB
S214005430FB794D2B02D10423FB8110E0FB79194642
S2140054400948FFF787FA034683F00103DBB2002B17
S21400545003D04FF48073FB8101E00023FB81FB89BE
S21400546018461037BD4680BD0050064080B584B053
S21400547000AF03463960FB710023FB810023BB604D
S214005480FB791846FFF7BEFF0346FB81FB89002B1E
S21400549060D1FB79354AD35C03F02003002B0BD098
S2140054A0012000F03BFD0346002B02D14FF4807331
S2140054B000E00023FB8123E0FB792C4AD35C03F059
S2140054C04003002B0BD0002000F028FD0346002BE5
S2140054D002D14FF4807300E00023FB8110E0FB79DB
S2140054E0224AD35C5BB2002B0ADA022000F016FDDB
S2140054F00346002B02D14FF4807300E00023FB81AB
S214005500FB89002B26D1FB79184AD35C03F01803DD
S214005510002B1FD0FB79154AD35C03F00803002B41
S21400552005D0FB790021184600F050F8B860FB79EA
S2140055300E4AD35C03F01003002B05D0FB79012143
S214005540184600F043F8B860BB68002B02D14FF451
S2140055508073FB813B68002B02D03B68BA681A60F8
S214005560FB8918461037BD4680BD00BF8C920200EE
S21400557080B584B000AF03463960FB71FB79112B10
S21400558007D8FB7939681846FFF77CFD0346FB8190
S21400559017E0FB79232B07D8FB7939681846FFF705
S2140055A013FE0346FB810CE0FB794D2B07D8FB79F5
S2140055B039681846FFF75AFF0346FB8101E00423CB
S2140055C0FB81FB8918461037BD4680BD80B586B086
S2140055D000AF03460A46FB711346BB7100237B618E
S2140055E0FB7919462E48FFF7EFF93861FB79194623
S2140055F02B48FFF701FAF8603A69FB689A424AD8E6
S214005600FB7919462648FFF7A5F90346002B42D03A
S214005610FB7919462248FFF7BFF90346013B052BE5
S2140056202AD801A252F823F0415600004F56000037
S2140056305D56000079560000795600006B56000053
S214005640BB791946062000F015FE786117E0BB7995
S2140056501946042000F00EFE786110E0BB7919466A
S214005660052000F007FE786109E0BB79194607209F
S21400567000F000FE786102E000237B6100BFFB685B
S21400568001337A69B2FBF3F37B613B695A1C7B6991
S21400569002FB03F37B617B6918461837BD4680BD65
S2140056A00050064080B582B000AF0E48FFF71DFAE6
S2140056B00346042B0AD0802B02D0012B03D008E02F
S2140056C00323FB7108E00123FB7105E00223FB7155
S2140056D002E00423FB7100BFFB7918460837BD467D
S2140056E080BD00BF00E0074080B586B000AF7860A0
S2140056F00023FB82FFF7D6FF0346FB73FB7B79682C
S214005700184600F09DFC0346FB82FB8A002B14D152
S2140057100A233B613B69013B3B610A48FEF7C8FC34
S21400572002467B68DB789A4202D03B69002BF1D1B7
S2140057303B69002B01D10323FB82FB8A18461837EE
S214005740BD4680BD0040064080B582B000AF3948F7
S214005750FEF7FCFB0346002B65D03648FEF716FC2A
S21400576003460E2B52D801A252F823F0A957000088
S2140057700D580000B15700000D580000BD5700003E
S2140057800D580000C9570000D5570000DF5700002D
S214005790EB570000F55700000D580000FD570000BD
S2140057A00D5800000558000000F046F8786030E01C
S2140057B00121062000F05EFD78602AE00121042029
S2140057C000F058FD786024E00121052000F052FD2D
S2140057D078601EE0002000F0A1FB786019E001214F
S2140057E0072000F047FD786013E0012000F096FBEC
S2140057F078600EE04FF4FA337B600AE000F04CFE6F
S214005800786006E000F052F8786002E000237B60E3
S21400581000BF0848FEF7ACFB034601337A68B2FBCC
S214005820F3F37B6001E000237B607B681846083753
S214005830BD4680BD0080044080B582B000AF1A48E7
S214005840FEF728FC0346062B25D801A252F823F0C3
S2140058506D580000775800007F58000087580000F9
S21400586097580000975800008F580000022000F05C
S21400587055FB786012E000F08BFD78600EE000F0DB
S2140058809FFD78600AE000F0B7FD786006E000F063
S214005890D1FD786002E000237B6000BF7B6818467D
S2140058A00837BD4680BD00BF0040064080B582B0C8
S2140058B000AF1A48FEF792F90346032B26D801A23A
S2140058C052F823F0D5580000E1580000F9580000BF
S2140058D0015900000021062000F0CCFC786018E09A
S2140058E00E48FEF701FB0346002B02D04FF4FA43A6
S2140058F000E000237B600CE0094B1B687B6008E03F
S2140059000021052000F0B6FC786002E000237B60F2
S21400591000BF7B6818460837BD4680BD008004403F
S2140059207C15002080B588B000AF03463960FB7157
S2140059300023FB833B68002B0FD100233B7401231D
S2140059407B740023BB7401237B730123BB73012389
S2140059503B7307F10C03BB6101E03B68BB61224867
S214005960FEF72FFD0346002B02D00223FB8305E043
S2140059701D48FEF75FFD1C48FEF76DFDFB79002B0A
S2140059802DD0FB8B002B2AD1BB695B781946BB69EF
S2140059909B781A461448FEF777FCBB691B781946B5
S2140059A01148FEF765FDBB691979BB695A79BB6971
S2140059B09B790D48FEF76DFD64237B6102E07B69F1
S2140059C0013B7B6100F0FCFC0346002B02D17B69A7
S2140059D0002BF4D17B69002B01D10323FB83FB8BC7
S2140059E018462037BD4680BD0040064080B588B0CA
S2140059F000AF03463960FB710023FB833B68002B36
S214005A000DD101237B740023BB7401237B73012318
S214005A10BB7300233B7307F10C03BB6101E03B68DB
S214005A20BB612248FEF761FD0346002B02D002232D
S214005A30FB8305E01D48FEF791FD1C48FEF79FFD21
S214005A40FB79002B2CD0FB8B002B29D1BB695B7814
S214005A501946BB699B781A461448FEF7E0FBBB69FB
S214005A601B7819461148FEF798FDBB695979BB6942
S214005A709B791A460D48FEF7A1FD64237B6102E080
S214005A807B69013B7B6100F0B7FC0346002B02D12B
S214005A907B69002BF4D17B69002B01D10323FB83A8
S214005AA0FB8B18462037BD4680BD00BF0040064031
